:020000040800F2
:10000000485E00242104000883760008C5680008C3
:10001000817600087D0C0008918A0008000000002D
:100020000000000000000000000000006103000864
:100030005D13000800000000BD030008C57A000839
:100040003B0400083B0400083B0400083B04000894
:100050003B0400083B0400083B0400083B04000884
:100060003B0400083B0400083B0400083B04000874
:100070003B0400080D0E00085D0E0008850E000808
:100080003B0400083B0400083B0400083B04000854
:100090003B0400083B0400083B0400083B04000844
:1000A0003B040008997C00083B0400083B0400085E
:1000B000D57C0008117D00084D7D00083B04000838
:1000C0003B0400083B0400083B0400083B04000814
:1000D0003B0400083B0400083B0400083B04000804
:1000E0003B0400083B040008000000003B0400083B
:1000F000D97D00083B0400083B0400083B040008CD
:100100003B0400083B040008897D00083B0400080C
:100110003B0400083B0400083B040008C57D0008C0
:100120003B0400083B0400083B0400083B040008B3
:100130003B0400083B0400083B0400083B040008A3
:1001400000000000000000000000000000000000AF
:100150003B0400083B0400083B0400083B04000883
:100160003B0400083B0400083B0400083B04000873
:100170003B0400083B0400083B0400083B04000863
:100180003B0400083B0400083B0400083B04000853
:100190003B0400083B0400083B0400083B04000843
:1001A0003B0400083B0400083B0400083B04000833
:1001B0003B0400083B0400083B0400083B04000823
:1001C0003B0400083B0400083B0400083B04000813
:1001D0003B0400083B0400083B0400083B04000803
:1001E0003B0400083B0400083B0400083B040008F3
:1001F0003B0400083B0400083B0400083B040008E3
:100200003B0400083B0400083B0400083B040008D2
:100210003B0400083B0400083B0400083B040008C2
:100220003B0400083B0400083B04000800000000F9
:100230003B0400083B040008000000003B040008E9
:100240003B0400083B0400083B0400083B04000892
:100250003B0400083B0400083B0400083B04000882
:100260003B0400083B0400083B0400083B04000872
:100270003B0400083B0400083B04000800000000A9
:100280003B0400083B0400083B0400080000000099
:10029000000000003B04000800F002F800F051F8F4
:1002A0000AA090E8000C82448344AAF10107DA45D1
:1002B00001D100F046F8AFF2090EBAE80F0013F0D2
:1002C000010F18BFFB1A43F00103184760CE00006E
:1002D00080CE00000A4410F8014B14F00F0508BF4F
:1002E00010F8015B240908BF10F8014B6D1E05D002
:1002F00010F8013B6D1E01F8013BF9D1641E03D0DB
:10030000641E01F8015BFBD19142E4D37047000009
:100310000023002400250026103A28BF78C1FBD80E
:10032000520728BF30C148BF0B607047692900F0F1
:100330002381002070471FB50CF082FC1FBD10B553
:1003400010BD00F047FB1146FFF7F5FF0AF038F942
:1003500000F065FB03B4FFF7F2FF03BC00F068FB9D
:100360002C4B19680868B0E8F04F80F30988BFF398
:100370006F8F4FF0000080F311887047000000007D
:1003800008480068006880F308884FF0000080F398
:10039000148862B661B6BFF34F8FBFF36F8F00DF73
:1003A00000BF00BF08ED00E0DFF80C00016841F479
:1003B00070010160704700BF88ED00E0EFF3098035
:1003C000BFF36F8F134B1A681EF0100F08BF20ED9C
:1003D000108A20E9F04F106009B44FF0500080F30C
:1003E0001188BFF34F8FBFF36F8F0BF04BFD4FF0B2
:1003F000000080F3118809BC19680868B0E8F04F64
:100400001EF0100F08BFB0EC108A80F30988BFF30C
:100410006F8F7047B8010024EFF30580704700002C
:100420000948804709480047FEE7FEE7FEE7FEE788
:10043000FEE7FEE7FEE7FEE7FEE7FEE704480549C4
:10044000054A064B70470000BD7B00089902000872
:1004500048580024485E0024485A0024485A002482
:1004600053EA020C00F069802DE9F04B4FF00006D2
:10047000002B1FBFB3FA83F503FA05F424FA05F63F
:100480005E4012BF1643B2FA82F502FA05F4C5F1D6
:1004900020051EBF22FA05FC44EA0C04203556EA6A
:1004A000044C4FEA144418BF641C4FF000084FF08E
:1004B0000009904271EB030C39D3002919BFB1FA3E
:1004C00081F701FA07F6B0FA80F700FA07F6C7F1EC
:1004D00020071EBF20FA07FC46EA0C062037B6FBB1
:1004E000F4FCA7EB0507103F07F01F0BCBF120062C
:1004F0000CFA0BFB2CFA06F644BFB3460026202F5D
:10050000A4BF5E464FF0000B5BEA060C08BF4FF03D
:10051000010B19EB0B09ABFB027C48EB0608C01B77
:1005200006FB02CC0BFB03CC71EB0C01C1E70B46C5
:10053000024641464846BDE8F08B13B54FF0000037
:100540004FF00001AFF30080BDE81C407047000091
:100550000FB41CB5074B06AA7B446946009005986A
:1005600000F0F5F90020694600F004FA1CBC5DF8C3
:1005700014FB0000190400002DE9F0410646002498
:1005800010687529314616A510D0AFF300800028F9
:1005900002DA404213A507E031688A0701D512A5A7
:1005A00002E0490704D511A5012401E0AFF3008062
:1005B00000210A2206F1240709E0B0FBF2FCB0FB9F
:1005C000F2F302FB1C00303078541846491C002816
:1005D000F3D123462A463046BDE8F04100F058B931
:1005E000000000002D0000002B0000002000000093
:1005F0002DE9F05F894604464FF0000ADFF824B188
:10060000FB44C0F820A02046E168884700287DD040
:10061000252806D0D4E901219047206A401C206299
:10062000F1E700255F462046E16888472028064616
:1006300007DB312E05D2B81910F8200C08B105439C
:10064000F1E7A80701D525F00405C4F81CA0002790
:10065000C4F818A02A2E09D0304609F0C9FC38B3D6
:1006600004EB8708303EC8F8186019E059F8041BFD
:10067000204604EB87029161E1688847012F064616
:1006800018D1E069002820DA25F020051DE0D8F80F
:10069000180000EB800006EB40003038C8F8180066
:1006A0002046E1688847064609F0A2FC0028EED102
:1006B000012F0AD02E2E08D12046E16888477F1CE2
:1006C0000646022F45F02005C4DBA069002803DAA6
:1006D000404245F00105A061E80701D025F0100572
:1006E000A6B1A6F14100192802D8203645F40065CC
:1006F0004A463146204625604D46FFF717FE60B159
:10070000012807D0ED1D25F0070000E007E000F10B
:10071000080978E705F1040975E730467AE7206AA9
:10072000BDE8F09F88C80000032A40F2308010F036
:10073000030C00F0158011F8013BBCF1020F62447C
:1007400098BF11F801CB00F8013B38BF11F8013B0D
:10075000A2F1040298BF00F801CB38BF00F8013BBA
:1007600011F0030300F02580083AC0F0088051F82A
:10077000043B083A51F804CBA0E80810F5E7121D35
:100780005CBF51F8043B40F8043BAFF30080D20754
:1007900024BF11F8013B11F801CB48BF11F8012B20
:1007A00024BF00F8013B00F801CB48BF00F8012B43
:1007B000704710B5203AC0F00B80B1E81850203ACD
:1007C000A0E81850B1E81850A0E81850BFF4F5AFF1
:1007D0005FEA027C24BFB1E81850A0E8185044BF7B
:1007E00018C918C0BDE810405FEA827C24BF51F8E8
:1007F000043B40F8043B08BF7047D20728BF31F8DC
:10080000023B48BF11F8012B28BF20F8023B48BF2C
:1008100000F8012B704702F0FF0343EA032242EA8B
:10082000024200F0AEB84FF0000200B51346944605
:100830009646203922BFA0E80C50A0E80C50B1F138
:100840002001BFF4F7AF090728BFA0E80C5048BF4C
:100850000CC05DF804EB890028BF40F8042B08BFEA
:10086000704748BF20F8022B11F0804F18BF00F8E6
:10087000012B704770477047704710B500F0A2F821
:10088000006810BD10B5044600F09CF8046010BD6F
:100890002DE9F0470D4699469246044600F124089A
:1008A0000168880604D5E06921F01001216000E0AC
:1008B0000120A84201DD471B00E00027A1697A1949
:1008C00002EB0900081AA0612078C00602D4204675
:1008D000AFF30080002608E0D4E901211AF80600F1
:1008E0009047206A401C761C20624E45F4DB20783D
:1008F000C0060AD52046AFF3008006E0D4E9012106
:1009000030209047206A401C2062381EA7F1010762
:10091000F4DC07E0D4E9012118F805009047206ACB
:10092000401C2062281EA5F10105F3DC2046AFF330
:1009300000802078000602D50220BDE8F087012063
:10094000FBE7000001694A1C02610878704700B5A6
:100950008FB0CDE901310021059105497944CDE9F8
:10096000031011466846FFF743FE0FB000BD0000BC
:10097000E5FFFFFF0A6802F8010B0A6070474FF0BD
:1009800000020429C0F0128010F0030C3FF44DAFB8
:10099000CCF1040CBCF1020F18BF00F8012BA8BF6A
:1009A00020F8022BA1EB0C01FFF73FBF5FEAC17CEF
:1009B00024BF00F8012B00F8012B48BF00F8012BE1
:1009C0007047000000487047E8570024004870470F
:1009D000E85700247546FFF7F9FFAE460500694663
:1009E000534620F00700854618B020B5FFF726FDD6
:1009F000BDE820404FF000064FF000074FF0000820
:100A00004FF0000B21F00701AC46ACE8C009ACE8A0
:100A1000C009ACE8C009ACE8C0098D46704710B504
:100A20000446AFF300802046BDE81040FFF792BCBB
:100A300001491820ABBEFEE7260002007047000007
:100A400070B53A4905460068884202D0384A90425B
:100A500002D1D1F8080302E03648D0F8080310F4B8
:100A6000403F11D004F05CFA04466868B0F5803F5E
:100A700006D0B0F5003F03D0B0F5403F27D101E0EC
:100A8000000C18E0A40822E000214FF4002003F03D
:100A9000B1FA044668688103890B18D181140C29C6
:100AA00015D2DFE801F0140606060606060B0D0F48
:100AB0001113800C4000B4FBF0F408E0240906E0B8
:100AC000640904E0A40902E0E40900E0240A02F059
:100AD000EFFC41F20301884208D817488442286895
:100AE000816813D821F48071816070BD134960085A
:100AF000884204D82868816821F44071F4E71049DD
:100B0000884206D82868816821F4407141F48071D8
:100B1000EAE70C4988422868816804D821F44071CA
:100B200041F40071E0E741F44071DDE7002002404C
:100B30000021024000600258002D3101105E5F006C
:100B400020BCBE0040787D0110B5846B616D11F052
:100B5000500F06D0616DC90625D5204600F068FF0C
:100B600010BD606D40F40070606520680168090781
:100B700007D505F0FDFF90B12068C068800403D55B
:100B80000DE0C06880070AD1606D20F48070606558
:100B9000606DC00403D4606D40F0010060652046C4
:100BA00000F044FF10BDE16CC96CBDE8104008477F
:100BB00010B5806B416D41F040014165816D41F0A0
:100BC0000401816500F034FF10BD10B5806B00F0AA
:100BD0002EFF10BD70B504460068816811F0010F4A
:100BE00040D18168204A11422DD18168D5432940E6
:100BF000491C816002F062FC1C49064620681C4BBF
:100C0000884201D0984201D11A4A00E01A4A9268FB
:100C1000984202F01F0200D0014681421DD0E2B18D
:100C200020E0816811F0010F03D181682940491C3F
:100C3000816002F043FC801B02280ED92068006806
:100C4000C043C00709D0606D40F010006065A06D22
:100C500040F00100A065012070BD20680168C94313
:100C6000C907DED1002070BD3F0000800020024097
:100C7000002102400023024000630258FEE70022E8
:100C8000012110B500F08CF8BDE81040052009F0F6
:100C9000E7BD2DE9F04104464FF0140C28254FF034
:100CA000080E0698062621600C2722716371A07138
:100CB0003220A572E671277284F809C084F80BE02F
:100CC00009F0CEFD00222046332100F069F8002211
:100CD0002046332100F064F8052009F0C1FD002210
:100CE0002046322100F05CF8052009F0B9FD002211
:100CF0002046202100F054F8052009F0B1FDE179EB
:100D00000022204600F04CF8217A0022204600F014
:100D100047F8617A0022204600F042F8A17A0022CA
:100D2000204600F03DF800222046012100F038F86E
:100D30002046BDE8F0410022022100F031B830B475
:100D4000447900238C4201D8641EE1B28479944234
:100D500001D8641EE2B232B1012A06D0022A06D0BE
:100D6000032A06D007E00B4605E0403102E01431CB
:100D700000E05431CBB230BC002243F0800100F0DF
:100D80000FB8012200F00CB870B50C46054603E020
:100D9000641C2846FFF7F5FF21780029F8D170BDC3
:100DA0007CB50B070646C07A01F0F0051C0E18B1A1
:100DB00045F0080544F00804012A01D02AB108E0F2
:100DC00045F0010544F0010403E025F0010524F09D
:100DD000010445F004008DF80400012009F040FDF5
:100DE00044F004008DF805508DF80600012009F04C
:100DF00037FD4FF47A708DF8074000900423317965
:100E000001AA306802F016FC7CBD00000F4B10B543
:100E1000587A0D2810D00E4A002111701078441C09
:100E20001954E0B210700A28F8D30C2002F06EFEBC
:100E30000C2002F07CFE04E01888064940BA4042CB
:100E40000880BDE81040044801F00AB9A802002457
:100E50003601002434010024E80C0024074810B5B2
:100E600009F0ECF928B90D2002F050FE0D2002F037
:100E70005EFEBDE81040024801F0F2B82C010024EB
:100E8000500E00241E4810B501F0EAF81D48017804
:100E9000552902D1417853290CD01B4805F088F917
:100EA000194805F0A9F9BDE8104016490B2216486B
:100EB00005F040BCC0889FED151B00EE100A9FEDA9
:100EC000152B1649B8EE400B20EE010B20EE020B5D
:100ED000B7EEC00B10EE100A884203DDDFED100AFA
:100EE00030EE600AF2EE040ABDE8104020EE200A5F
:100EF000BDEEC00A10EE100A00B20AF035BD0000C7
:100F0000600D0024B2020024F80800240000000054
:100F10000000003F0000000000209C400000E14471
:100F200000006145294A016891423AD0274A1832A7
:100F3000914236D0254A3032914232D0234A48324B
:100F400091422ED0214A603291422AD01F4A7832F3
:100F5000914226D01D4A9032914222D01B4AA8329B
:100F600091421ED01A4A91421BD0194A183291421E
:100F700017D0174A3032914213D0154A4832914265
:100F80000FD0134A603291420BD0114A783291420D
:100F900007D00F4A9032914203D00D4AA8329142B5
:100FA00011D1CAB21823103AB2FBF3F26FF3090160
:100FB000032A02F00703074AD25CC26500D9091D63
:100FC00081650846704721F0FF01F9E710000240F3
:100FD00010040240F0CD000830B5224A0123016818
:100FE0009142CAB21BD01F4C1434A14217D01D4CE1
:100FF0002834A14213D01B4C3C34A1420FD0194CD1
:101000005034A1420BD0174C6434A14207D0154C88
:101010007834A14203D0134C8C34A1420CD114215A
:10102000114C083AB2FBF1F10F4A803201F01F0572
:1010300004EB8101AB4010E00C4D1824103A0D4434
:10104000B2FBF4F1A82D00D80831094A01F01F04C1
:1010500002EB8101064AA3408032603080E80E0036
:1010600030BD00000854025800580258F0FBFDBF84
:101070000008024010B50279531E072B2DD8174CDB
:101080000168A1421BD0154C1434A14217D0134C57
:101090002834A14213D0114C3C34A1420FD00F4C44
:1010A0005034A1420BD00D4C6434A14207D00B4CFC
:1010B0007834A14203D0094C8C34A14203D10849B1
:1010C000074C443102E00749064C443104EB8202EC
:1010D000C0E91B2101219940416710BD0854025805
:1010E000FC580258FC08024010B583694FF0C074E8
:1010F000826A0146002053B1B3F5005F15D072B18A
:10110000012A0CD0022A0AD0032A09D104E01AB11C
:10111000012A06D0022A03D1C96AC90100D50120DB
:1011200010BDC96AA142FAD010BD002AF7D0012A29
:10113000F2D0022AF3D0032AF3D010BD2DE9F04FEC
:10114000804E804FDFF8FC911836DFF8F8A1483761
:101150000468856D0AF1300ADFF8ECB14C45DFF820
:10116000ECC1DFF8ECE16DD0B4426BD0544569D0EE
:10117000BC4267D0DFF8D081A8F11808444561D09F
:101180005C455FD064455DD074455BD0DFF8C481B9
:10119000444557D0DFF8BC8108F11808444551D0C8
:1011A000DFF8B08108F1300844454BD0DFF8A48166
:1011B00008F14808444545D0DFF8988108F16008F7
:1011C00044453FD0DFF88C8108F17808444539D098
:1011D000DFF8808108F19008444533D0DFF874814E
:1011E00008F1A80844452DD0DFF86C81444529D08A
:1011F000DFF8648108F11408444523D0DFF85881F2
:1012000008F1280844451DD0DFF84C8108F13C085E
:10121000444517D0DFF8408108F15008444511D00B
:10122000DFF8348108F1640844450BD0DFF82881E9
:1012300008F17808444505D0DFF81C8108F18C08D6
:10124000444509D1D0E91948C4F80480C46E1CB1E2
:10125000D0E91C48C4F8048004684C452ED0B44240
:101260002CD054452AD0BC4228D0374E183EB44228
:1012700024D05C4522D0644520D074451ED0354E24
:10128000B4421BD0334E1836B44217D0314E3036EC
:10129000B44213D02F4E4836B4420FD02D4E603694
:1012A000B4420BD02B4E7836B44207D0294E90363C
:1012B000B44203D0274EA836B44215D190F85C60F2
:1012C0003F2406F01F06B440AC600468256825F48E
:1012D000802525602EE09A600068C160BDE8F08F2F
:1012E00099600068C260F9E71B4EB4421BD01A4EE9
:1012F0001436B44217D0184E2836B44213D0164EC6
:101300003C36B4420FD0144E5036B4420BD0124E7D
:101310006436B44207D0104E7836B44203D00E4E35
:101320008C36B442DAD190F85C60012406F01F06D6
:10133000B4406C60046863608368402B0368CFD15D
:10134000C9E700001000024088000240A0000240EF
:10135000B80002401004024008540258704772B6A8
:10136000FEE70000F0B503684FF6FC716D4C426B70
:10137000D3F884508D4345EA8205C3F8845003684E
:1013800053F8845F068F25F47F0545EA06451D6006
:10139000836B654D9F180268D2F888308B4343EA0F
:1013A0008703C2F88830026852F8883F868F23F49A
:1013B000FE0343EA06431360066856F8A03FC26B7B
:1013C0008B4307EB420243EA82033360076857F816
:1013D000A03FB0F8406023F4FE0343EA06433B60BD
:1013E000D0E9103603FB06220368D3F8B0608E43C1
:1013F00046EA8206C3F8B0600368B0F84860D3F8E4
:10140000B07027F4FE0747EA0646C3F8B060D0E99B
:101410001267036806FB0722D3F8AC608E4346EAE6
:101420008206C3F8AC60D0E91467036806FB0722A4
:10143000D3F8F0608E4346EA8206C3F8F060036892
:10144000B0F85860D3F8F07027F47C1747EA0646E6
:10145000C3F8F0600368876D53F8C06F02EB470272
:101460008E4346EA820119600168B0F85C20D1F829
:10147000C03023F47C1343EA0242C1F8C020016863
:1014800090F86020D1F8C03023F07C5343EA026228
:10149000C1F8C020416B04EB8101C166826B01EB96
:1014A00082020267C36B02EBC3024267D0E91034C9
:1014B000634302EB83028267D0E91234634302EB99
:1014C0008302C267D0E91434634302EB8302C0F89D
:1014D0008020836D02EBC303C0F88430C46D826E3C
:1014E000544303EB8403C0F88830046E544303EB89
:1014F0008402C0F89020AA420AD9D0F89C20032187
:1015000042F02002C0F89C2080F898100120F0BD25
:10151000002200E004C1D0F890308B42FAD80020BD
:10152000F0BD000000AC0040FCD300402DE9F047C6
:101530000F4690F850109AB0044601294FF0000968
:1015400015D00026DFF8F880012084F850001596A9
:101550001696216841450ED13A4D0095284605F072
:1015600003FB8246206805F0FFFA60B10EE002201E
:101570001AB0BDE8F087606D84F8506040F020003C
:1015800060650120F4E7BAF1000F09D0616D4FF0FA
:10159000010941F020006065484684F85060E7E7A3
:1015A00020684146884201D0A84201D1264800E087
:1015B000264840F61F72D7F800C0254BBCF1000F3B
:1015C00023D0D0F808C0D7F804802CF4404C4CEA63
:1015D000080CC0F808C0D4F800C08C4501D0AC4558
:1015E00007D18968AB6801F0010103F001031943D9
:1015F00002E0996801F001010029CDD1BD68396888
:10160000836829439343194317E0876827F44047C9
:10161000876027688F4201D0AF4207D18968AB68E5
:1016200001F0010103F00103194302E0996801F0A0
:1016300001010029B0D1816891438160ACE70000CD
:1016400000200240002102400023024000630258B3
:10165000006002582DE9F84F4FF0000B0D46E54FA2
:101660000446CDF800B0D94690F85010DFF888A3B2
:10167000012907D0012684F85060206805F070FA2F
:1016800018B168E10220BDE8F88F286800280DDB5A
:1016900021680303CA6927D090FAA0F0B0FA80F05D
:1016A00000F01F0006FA00F00243CA61D5E90012FB
:1016B0004FF00C0C20681F23C1F384610CEA921CCC
:1016C00002F01F02604493409140026B9A430A4328
:1016D0000263206805F044FA8046206805F03CFA71
:1016E00058EA000003D07FE0C0F38460D8E72068A8
:1016F000AA68296805F044FAC0480068B6EB107F74
:1017000006D121686869C968C1F38201490008E00F
:101710002068C168C906C1686869F5D501F0100183
:1017200049088840296904292ED023682A6803EBD8
:10173000810102F0F8420B6E024303F000401043B7
:101740000866697E22682869012917D05FF00001C8
:1017500002EB8000026E22F000420A430266297EFC
:1017600020682A6901290CD00021036902F01F02B8
:10177000914023F4F0420A43026135E04FF000410A
:10178000E6E74FF40061F0E720682978026E02F086
:10179000F842B2EB816F03D1016E21F00041016686
:1017A00020682978426E02F0F842B2EB816F03D1D3
:1017B000416E21F00041416620682978826E02F076
:1017C000F842B2EB816F03D1816E21F00041816656
:1017D00020682978C26E02F0F842B2EB816F03D123
:1017E000C16E21F00041C1662068816811F0010FCF
:1017F00076D150F8C02F95F80CC0814B29680CF0B9
:10180000180823FA08F3C1F3130C0B4022EA0C0268
:101810001A4302607B48E968814277D12868010356
:101820001BD090FAA0F1B1FA81F1491C01F01F011F
:1018300009294FEA003131D8002911D090FAA0F1DE
:10184000B1FA81F101F1010101F01F0106FA01F67F
:1018500009D100BFC0F3846109E0C0F38461E4E70B
:10186000C0F38461EEE790FAA0F1B1FA81F101F1E1
:10187000010101F01F0146EA816102D1C0F38460D9
:1018800003E090FAA0F0B0FA80F000F1010000F05F
:101890001F0000EB400041EA005133E000290ED068
:1018A00090FAA0F1B1FA81F101F1010101F01F01FB
:1018B00006FA01F606D100BFC0F3846106E0C0F36A
:1018C0008461F1E790FAA0F1B1FA81F101F101012F
:1018D00001F01F0146EA816103D1C0F3846004E096
:1018E0003FE090FAA0F0B0FA80F0474A00F1010022
:1018F00000F01F0000EB400002EB005041EA000145
:1019000041F00071AA68206805F03AF92E68002EAF
:1019100027DA3E4A20683E49DFF8F8C0904201D0FD
:10192000B84201D10B4600E063469B68904203F049
:10193000E07301D0B84209D19568D7F8088005F066
:10194000010508F0010845EA080503E0DAF8085047
:1019500005F001054DB1616D4FF0010941F0200026
:101960006065484684F850B08DE62B4DAE421CD1E0
:101970001D021AD45045F4D1904202D0B84200D092
:1019800061468A6843F4000022F0E07202438A60F4
:10199000234922480968B1FBF0F04000801C00E0B8
:1019A000401E00900028FBD1DBE71E4DAE420CD15B
:1019B000DD010AD45045D4D1904202D0B84200D0C3
:1019C00061468A6843F080700EE0174DAE42C8D180
:1019D0005D02C6D45045C4D1904202D0B84200D076
:1019E00061468A6843F4800022F0E07202438A6014
:1019F000B7E7000000210240006002580010005CC0
:101A0000FFFF0F000000FF47000020FE0020024003
:101A10000023024000630258000084CB400D030005
:101A2000B0010024000052C70000B8CF70477047D3
:101A300070470000F8B54FF00006040035460096E8
:101A400002D0606D10B107E00120F8BD204600F023
:101A500005F9A66584F8506020688168C1F340717B
:101A600019B18168704A1140816020688168C1F3B2
:101A7000007181B981686D4A114041F080518160E7
:101A80006C496B480968B1FBF0F0401C00E0401E57
:101A900000900028FBD120688168C1F3007141B932
:101AA000616D012541F010016165A16D41F00101F9
:101AB000A16505F055F8616DC90600D420B1606DCF
:101AC000012540F0100093E0606D20F4807040F03C
:101AD000020060652068816811F0010F1FD1564A2D
:101AE000564B904201D0984207D191689E6801F010
:101AF000010106F00106314303E05149896801F014
:101B0000010161B9904201D0984201D14D4800E0F5
:101B10004D488268616822F47C120A43826001F0B9
:101B2000C7FC41F20301884202D9A06810280CD0FA
:101B3000617D227FA368206B490341EA024118437B
:101B40000843217F01290CD010E0607D227F216BAA
:101B5000400340EA024241F01000104340F00C0004
:101B6000EFE7218C394A02EB41410843616A29B110
:101B7000A26A01F47871014342EA01002168344B02
:101B8000CA681A400243CA60206804F0E9FF0646AA
:101B9000206804F0E1FF30431DD1216844F20303C3
:101BA000267DE26AC86842EA863298431043C860DC
:101BB00094F8380001281ED02068016921F0010145
:101BC00001612068626B016921F07041114301617C
:101BD0002046FEF735FFE068012820681CD0016B25
:101BE00021F00F010163606D20F0020040F0010060
:101BF00060652846F8BD2068A28F164FD4E9101CF6
:101C0000154E07EB0247A36C026941EA0C013B4306
:101C1000324019431143D3E7A269016B521E21F0F0
:101C20000F011143DEE70000C0FFFF5FC0FFFF7F31
:101C3000400D0300B00100240020024000210240BA
:101C40000060025800230240006302580000FEFFBB
:101C500003C0F0FF0100FFFF1EF800FCF0B5B7B0B5
:101C60000646142130A8FEF7DEFDC0216846FEF7C7
:101C7000DAFD38493068884269D102209624002272
:101C8000CDE9034006AC154620270590192384E8CA
:101C9000A1004FF400210992299268468DE80E00B8
:101CA00002F00CFB08B1FFF75AFB2B48016841F02A
:101CB00020010160006800F02000359026480830BF
:101CC000016841F004010160016801F004013591EF
:101CD000016841F001010160016801F001013591E5
:101CE000016841F002010160006830A9032400F09E
:101CF00002003590322081E83100184801F0B0FA36
:101D000030A9FC2081E83100154801F0A9FA30948F
:101D100030A91448CDE9314501F0A2FA124C09214D
:101D200012484FF4807C021584E82300D700C4E9F0
:101D30000352C3142046C4E907C56562C4E90537E8
:101D400000F002FD08B1FFF70AFBF464A66337B0A8
:101D5000F0BD000000200240D8440258000802589C
:101D60000000025800040258700C002410000240C9
:101D70002DE9F047384E044600689146DFF8DC80D4
:101D80008A46B04201D0404501D1354900E035498D
:101D9000896801F01F0504F0E3FE002859D194F88A
:101DA0005000012855D001204FF0000784F8500062
:101DB00025B1052D02D0092D00D003E02046FEF705
:101DC00009FF18B184F85070BDE8F087616D40F6E6
:101DD000016320689943404541F48071616500D0FA
:101DE0000646864200D01DB9606D20F48010606503
:101DF000606DC00404D5A06D20F00600A06500E071
:101E0000A7651C20E16C184ACA63E26C174911648B
:101E1000E26C1749D1642168086084F8507020682A
:101E2000416841F0100141602068E16AC26822F017
:101E300003020A43C26021684B46E06C52464031BF
:101E400000F064FE21680B4B8A681A40121D8A60FC
:101E5000BAE70220B8E7000000200240002102405B
:101E60000023024000630258490B0008CB0B000816
:101E7000B10B0008C0FFFF7F2DE9F05F04007DD0AB
:101E80006D4A6D4B6C491832206830336B4E6C4F85
:101E90008842DFF8B0C1DFF8B081DFF8B091DFF839
:101EA000B0A1DFF8B0B1DFF8B0E121D090421FD08F
:101EB00098421DD0B0421BD0B84219D0604517D00F
:101EC000404515D0484513D0504511D058450FD046
:101ED00070450DD0604D1835A84209D05E4D3035A3
:101EE000A84205D05C4D4835A84201D05A4D603516
:101EF000056825F00105056020680025884227D087
:101F0000904225D0984223D0B04221D0B8421FD071
:101F100060451DD040451BD0484519D0504517D0CD
:101F2000584515D0704513D04B49183188420FD011
:101F30004949303188420BD047494831884207D05F
:101F400045496031884203D043497831884218D1ED
:101F50002121056020684560206885602068C56093
:101F600020680561206841612046FEF7DBFF94F898
:101F70005C203F2102F01F02914000E059E08160A7
:101F800031E0364988421BD034491431884217D099
:101F900032492831884213D030493C3188420FD031
:101FA0002E49503188420BD02C496431884207D0E9
:101FB0002A497831884203D028498C31884238D167
:101FC000056020684560206885602068C5602068DD
:101FD00005612046FEF7A6FF94F85C20012102F07F
:101FE0001F02914041602046FEF7F6FF206E18B1B7
:101FF0000560D4E9190141606068401E072807D8D0
:102000002046FFF737F8E06E0560D4E91C01416017
:10201000E56625676567E56325646564A564E56431
:102020002565656584F83550002084F83450BDE896
:10203000F09F0120FBE70000100002405800024022
:102040007000024088000240A0000240B800024038
:102050001004024028040240400402400854025880
:102060002DE9FC5F0446F74E0020DFF8D88300908E
:102070004FF41652F44808F11808A56DDFF8C49320
:10208000DFF8C0A3016809F1300920680AF1480AA5
:10209000B1FBF2F1B04201912F68D5F800C0DFF832
:1020A000ACB335D04146884232D0484530D0504557
:1020B0002ED058452CD0E5491831884228D0E34924
:1020C0003031884224D0E1494831884220D0E0496B
:1020D00088421DD0DE491831884219D0DC493031A0
:1020E000884215D0DA494831884211D0DFF860E3E0
:1020F0000EF1600E70450BD0D54A7832904207D071
:10210000D34B9033984203D0D149A83188427DD136
:1021100094F85C20082102F01F0201FA02F23A4210
:102120004AD0B04232D0404530D048452ED05045FC
:102130002CD058452AD0C54A1832904226D0C34ADE
:102140003032904222D0C14A483290421ED0C04A1A
:1021500090421BD0BE4A1832904217D0BC4A30324F
:10216000904213D0BA4A483290420FD0B84A6032F7
:1021700090420BD0B64A7832904207D0B44A90329F
:10218000904203D0B24AA832904203D1026802F0D2
:10219000040202E0026802F008026AB1026822F05A
:1021A0000402026094F85C0000F01F008140A96006
:1021B000606D40F00100606594F85C00012100F062
:1021C0001F008140394240D02068B04234D04045A1
:1021D00032D0484530D050452ED058452CD09B4A5F
:1021E0001832904228D0994A3032904224D0974AEF
:1021F0004832904220D0964A90421DD0944A1832DC
:10220000904219D0924A3032904200E0AFE113D0B0
:102210008F4A483290420FD08D4A603290420BD0A4
:102220008B4A7832904207D0894A9032904203D04C
:10223000874AA83290427DD1406910F0800F04D0C7
:10224000A960606D40F00200606594F85C000421B4
:1022500000F01F00814039423ED02068B04232D0A9
:10226000404530D048452ED050452CD058452AD036
:10227000764A1832904226D0744A3032904222D0A8
:10228000724A483290421ED0714A90421BD0704A26
:102290001832904217D06E4A3032904213D06C4AB6
:1022A000483290420FD06A4A603290420BD0684A5E
:1022B0007832904207D0664A9032904203D0644A06
:1022C000A83290424ED1006810F0020F04D0A960ED
:1022D000606D40F00400606594F85C00102100F02F
:1022E0001F008140394258D02068B04234D0404568
:1022F00032D0484530D050452ED058452CD0534A86
:102300001832904228D0514A3032904224D04F4A5D
:102310004832904220D04E4A90421DD04C4A18324A
:10232000904219D04A4A3032904215D0484A483239
:10233000904200E014E00FD0454A603290420BD04A
:10234000434A7832904207D0414A9032904203D0BB
:102350003F4AA832904207D1006800F0080006E02A
:10236000006872E70068B7E7006800F00400A0B1F9
:10237000A96020680168490304D50068000308D5F6
:10238000A16C07E00168C90503D4016821F00801C8
:102390000160216C09B12046884794F85C00202137
:1023A00000F01F008140394279D02068B04232D01D
:1023B000404530D048452ED050452CD058452AD0E5
:1023C000224A1832904226D0204A3032904222D0FF
:1023D0001E4A483290421ED01D4A90421BD01C4AD1
:1023E0001832904217D01A4A3032904213D0184A0D
:1023F000483290420FD0164A603290420BD0144AB5
:102400007832904207D0124A9032904203D0104A5C
:10241000A832904203D1006800F0100002E000688A
:1024200000F00200B0B3A96094F8350004282068D9
:1024300001680FD049037ED5006800032BD4616C7E
:102440002AE0000010000240B001002470000240A9
:102450001004024021F0160101602068416921F05A
:1024600080014161206C08B9A06C20B1206801682E
:1024700021F00801016094F85C303F21012003F055
:102480001F0300229940A96084F8350084F83420A5
:10249000216D65E003E0E16B09B120468847606D7E
:1024A00000287DD0606DC00759D02068042184F8D1
:1024B0003510B0422BD0404529D0484527D0504553
:1024C00025D0584523D09D49884220D09B491831BA
:1024D00088421CD099493031884218D098498842A6
:1024E00015D097491831884211D09549303188422A
:1024F0000DD093494831884209D0914960318842D2
:1025000005D08F497831884201D08D4990310168DA
:1025100021F00101016020680099019A491C009195
:10252000914202D80168C907F6D10068C00710D0EF
:1025300003200FE0FFE70168C905ACD4036801215F
:10254000002223F01003036084F8351084F834204F
:10255000A1E7012084F83500002084F83400E16C04
:1025600000291DD002B02046BDE8F05F084775493C
:1025700088421DD073491431884219D071492831DD
:10258000884215D06F493C31884211D06D49503195
:1025900088420DD06B496431884209D0694900E016
:1025A00084E07831884203D066498C3188427DD1FD
:1025B00094F85C800427016808F01F0807FA08F700
:1025C00017EA0C0F009746D04F0744D500980F0428
:1025D000686003D5C8033CD4A16CC1E7880638D431
:1025E0002068B0422DD055496039884229D04845ED
:1025F00027D0504525D0584523D05049884220D077
:102600004E49183188421CD04C493031884218D08C
:102610004B49884215D04A491831884211D048495F
:10262000303188420DD046494831884209D0704542
:1026300007D0904205D0984203D04149A831884242
:1026400003D1016821F0080102E0016821F00401D2
:102650000160216C84E7022707FA08F717EA0C0FDC
:1026600000974ED08F074CD500980F04686003D5B3
:10267000C80344D4616C73E7880640D42068B04234
:102680002FD02E49603988422BD0484529D050455B
:1026900027D0584525D02949884222D027491831CA
:1026A00088421ED025493031884200E044E018D0ED
:1026B0002349884215D022491831884211D0204937
:1026C000303188420DD01E494831884209D07045CA
:1026D00007D0904205D0984203D01949A8318842CA
:1026E00003D1016821F0140102E0016821F00A0120
:1026F0000160012184F83510002084F83400E16B7A
:102700002EE7082202FA08F212EA0C0F14D0090789
:1027100012D5016821F00E01016094F85C100120CF
:10272000002201F01F0100FA01F16960606584F880
:10273000350084F8342012E7BDE8FC9F8800024091
:1027400010040240085402582DE9F05F044600F0DE
:10275000B5FE002C07467DD0E34E022120684FF0E5
:102760000308DFF888934FF00005DFF884A3B04238
:10277000DFF880B334D0DC4A1832904230D048457C
:102780002ED050452CD058452AD0DA4A18329042E3
:1027900026D0D84A3032904222D0D64A483290428F
:1027A0001ED0D54A90421BD0D34A1832904217D03F
:1027B000D14A3032904213D0CF4A483290420FD0A3
:1027C000CD4A603290420BD0CB4A7832904207D04B
:1027D000C94A9032904203D0C74AA83290427DD174
:1027E00084F83510B04284F834502ED0BE491831E8
:1027F00088422AD0484528D0504526D0584524D074
:10280000BC491831884220D0BA49303188421CD0A6
:10281000B8494831884218D0B749884215D0B649DE
:102820001831884211D0B449303188420DD0B249B4
:102830004831884209D0B0496031884205D0AE495C
:102840007831884201D0AC499031016821F0010112
:10285000016008E027E100BF00F030FEC01B052842
:1028600001D920211CE120680068C007F4D104F1DF
:1028700008002168D4E9053C8E4685C809681043E4
:10288000D4E907281F43636A38439C4F40EA0C0091
:102890001043394040EA0800042B40EA010003D10C
:1028A000D4E90B1211430843954909686FF30F01EE
:1028B000B1F1005F0FD36168A1F12902052A08D99F
:1028C000163A032A05D9083A012A02D94F390329B1
:1028D00001D840F48010CEF8000000E023E020682A
:1028E000676A4069042F20F0070047EA00070DD10E
:1028F000D4E90A01074349B12046FEF7F5FB28B1A8
:1029000040206065012184F83510CCE020684761E3
:102910002046FEF707FB94F85C203F2102F01F02DF
:102920009140816054E0774A90421BD0754B14333C
:10293000984217D0734B2833984213D0714B3C33D5
:1029400098420FD06F4B503398420BD06D4B64338D
:10295000984207D06B4B7833984203D0694B8C3345
:1029600098427DD184F8351084F83450664B016864
:10297000A26801EA030E402A73D0802A72D0002296
:10298000D4E90378D4E9053142EAD70242EAD8080B
:102990005C4AD4E9077C48EAD30848EAD10141EA15
:1029A000D701524241EA1C11142341EA0E01016091
:1029B00020681044B0FBF3F08000E0652046FEF78D
:1029C000B1FA94F85C20012102F01F0291404160AD
:1029D0002068B04257D044491831884253D0484506
:1029E00051D050454FD058454DD0424918318842BA
:1029F00049D040493031884245D03E49483188422B
:102A000041D03D4988423ED03B49183188423AD0B6
:102A100039493031884236D037494831884232D03E
:102A20003549603188422ED03349783188422AD0E6
:102A300031499031884226D02F49A831884222D08E
:102A4000304988421FD02F49143188421BD02D496C
:102A50002831884217D02B493C31884213D002E0FC
:102A60001DE017E018E02749503188420BD0254976
:102A70006431884207D023497831884203D0214904
:102A80008C31884229D12046FEF7A6FAA06880281A
:102A90000CD00CE0102273E74FF4804270E7402125
:102AA000616584F835800120BDE8F09F6560216E86
:102AB00020790860D4E9190141606068401E072848
:102AC00008D82046FEF7D6FAE06E0560D4E91C016E
:102AD000416002E0E566256765670120656584F869
:102AE00035000020E0E700001000024040000240F6
:102AF0005800024070000240100402403F8010FE67
:102B00000010005C085402580F00FEFF2DE9F84F3A
:102B100004008C464FF00000009014D094F834006C
:102B2000012812D094F835500120002184F8340097
:102B3000012D0CD0C00260650120009084F8341093
:102B40000098BDE8F88F0120FBE70220F9E78C4DE3
:102B50000226206884F83560A8428A4D61658A4E55
:102B60008A4FDFF82C82DFF82C92DFF82CA2DFF8F6
:102B70002CB226D0A84224D0B04222D0B84220D0D5
:102B800040451ED048451CD050451AD0584518D055
:102B90008349884215D082491831884211D0804932
:102BA000303188420DD07E494831884209D07C4975
:102BB0006031884205D07A497831884201D078491D
:102BC0009031016821F00101016061462046FEF765
:102BD000B5FA6B49206888422CD0A8422AD0B0426E
:102BE00028D0B84226D0404524D0484522D0504570
:102BF00020D058451ED06A4A90421BD0684A1832ED
:102C0000904217D0664A3032904213D0644A48321C
:102C100090420FD0624A603290420BD0604A7832C4
:102C2000904207D05E4A9032904203D05C4AA8326C
:102C300090420CD1026822F01E0242F0160202609D
:102C4000206C88B12068026842F008020BE002683C
:102C500022F00E0242F00A020260206C20B12068CD
:102C6000026842F004020260206888424BD0A84209
:102C700049D0B04247D0B84245D0404543D04845FE
:102C800041D050453FD058453DD0454A90423AD07A
:102C9000434A1832904236D0414A3032904232D0C4
:102CA0003F4A483290422ED03D4A603290422AD06C
:102CB0003B4A7832904226D0394A9032904222D014
:102CC000374AA83290421ED0364A90421BD0354A2D
:102CD0001432904217D0334A2832904213D0314AEE
:102CE0003C3290420FD02F4A503290420BD02D4AA6
:102CF0006432904207D02B4A7832904203D0294A5E
:102D00008C3290420DD1206E0268D20303D5026846
:102D100042F480720260E06E18B1026842F4807280
:102D200002602068884226D0A84224D0B04222D037
:102D3000B84220D040451ED048451CD050451AD03E
:102D4000584518D01649884215D01549183188427F
:102D500011D01349303188420DD011494831884291
:102D600009D00F496031884205D00D497831884239
:102D700001D00B499031016841F001010160DFE6AB
:102D8000100002402800024040000240580002406B
:102D90007000024088000240A0000240B8000240DB
:102DA00010040240085402582DE9F04194B08D49B6
:102DB0004C2204466846FDF7FCFC64B18A4D20684D
:102DC000A84202D100F58070606094F898004FF03E
:102DD000000820B108E0012014B0BDE8F0812046D1
:102DE00084F8998000F002F92068816921F01001CF
:102DF000816100F063FB0327064604E000F05EFB00
:102E0000801B0A2811D8206880690007F6D4206842
:102E1000816941F00101816100F050FB06460DE03F
:102E200000F04CFB801B0A2808D9D4F89C0040F025
:102E30000100C4F89C0084F89870CCE72068806991
:102E4000C007EDD02068816941F002018161207CDA
:102E500001282068816937D041F040018161607CA0
:102E600001282068816932D021F480418161A07CF1
:102E70000128206881692DD041F48051816120684A
:102E8000A268816921F440711143816120688169E0
:102E900021F0A40181612068016921F01001016124
:102EA000E068012819D010B302281BD0206881697E
:102EB00041F0800181612068016941F010010161E8
:102EC000E06803280ED012E021F04001C6E741F48B
:102ED0008041CBE721F48051D0E72068816941F03F
:102EE000040103E02068816941F020018161207EB6
:102EF0006FF0FF02D4E90773A68A1102400602EBC5
:102F00000727A0F10070384327685B1E184301EBC8
:102F100006463043F861A068B0F5407F11D104F156
:102F20002800A68C6FF00F0C89C801EB0641401EEB
:102F300002EB0322104322680CEB071318430843EB
:102F4000D060206E30B12068626ED0F8C01011439E
:102F5000C0F8C010D4E917126846D14209D02168E0
:102F6000A36E51F8C82F50F8233022F007021A43FD
:102F70000A60216C49B12168626C51F8BC3F50F87D
:102F8000226023F0070232430A60A16C51B121682C
:102F9000E36C51F8BC2F50F8233022F0700242EA63
:102FA00003120A60216D51B12168626D51F8BC3F76
:102FB00050F8220023F4E06242EA00200860206812
:102FC000A84204D16068816821F003018160C4F8DF
:102FD00094800121C4F89C8084F898102046FEF764
:102FE000C1F9F9E608CE000800A000402DE9F0473D
:102FF000B6B08146142130A8FDF715FCC021684603
:10300000FDF711FC354D0027D9F800004FF0805135
:10301000334A0C3D304E4FF00108304C90424FF097
:1030200002094FF0090A25D100201C914A13CDE96D
:103030000020684601F042F908B1FEF790F93068C7
:10304000401C3060012807D1206840F48070206067
:10305000206800F480703590286840F001002860F6
:1030600028684FF4C05330A900F00100CDE934A026
:103070001C4828E01C4A90422BD100201C914FF4A0
:103080000042CDE90020684601F018F908B1FEF7CA
:1030900066F93068401C3060012807D1206840F490
:1030A00080702060206800F480703590286840F0BF
:1030B0000200286028684FF4405330A900F0020055
:1030C000CDE934A00948CDE93039CDE9328700F0A7
:1030D000C7F836B0BDE8F08738010024EC44025848
:1030E00000A000400000025800A400400004025864
:1030F0002DE9F04F4F4D00224FF0010A4FF00F0B1A
:1031000092E000BF0AFA02F919EA01037ED022F028
:10311000030606F1B0469407D6F808C4270FDFF877
:1031200018810BFA07FE40450EEA0C0402D14FF05D
:10313000000C40E0DFF804C1604502D14FF0010C03
:1031400039E0DFF8FCC0604502D14FF0020C32E0FC
:10315000DFF8F0C0604502D14FF0030C2BE0DFF840
:10316000E8C0604502D14FF0040C24E0DFF8DCC079
:10317000604502D14FF0050C1DE0DFF8D4C060457A
:1031800002D14FF0060C16E0DFF8C8C0604502D14E
:103190004FF0070C0FE0DFF8C0C0604502D14FF0E0
:1031A000080C08E0DFF8B4C0604502D14FF0090C0C
:1031B00001E04FF00A0C0CFA07FCA44513D12C686F
:1031C0009C432C606F684FF0B0449F436F6067680A
:1031D0009F43676027689F432760D6F8084424EA26
:1031E0000E04C6F8084407680323D4084FEA4208CF
:1031F0004FEA427C03FA08F34FEADC6C1F43076096
:103200000BFA0CF600EB8404276A00E00BE0B743EE
:103210002762C4689C43C460446824EA090444608B
:1032200084689C438460521C31FA02F37FF46AAFD5
:10323000BDE8F08F800000580000025800040258DA
:1032400000080258000C02580010025800140258DE
:1032500000180258001C025800200258002402588E
:103260002DE9F84F03247D4D00234FF001094FF065
:10327000B04B4FF00F0AE9E009FA03F73A4076D075
:103280000E7906F00306012E01D0022E18D1D0F8D7
:1032900008C04FEA430ECE6804FA0EF82CEA080C78
:1032A00006FA0EF646EA0C068660D0F804C00E79DF
:1032B0002CEA070CC6F300169E4046EA0C06466050
:1032C0000E79F643B6070BD0C6684FEA43088F68FD
:1032D00004FA08FC26EA0C0607FA08F73743C76029
:1032E0000E7906F00306022E12D1DE080F694FEAAE
:1032F000437C00EB8606B646366A4FEADC6C0AFA77
:103300000CF807FA0CF726EA08063743CEF82070C7
:103310000F7906684FEA430807F0030704FA08FC30
:1033200007FA08F726EA0C06374307604E6816F4DA
:10333000403F1CD04A4E376847F002073760366876
:103340009F0706F00206009623F0030606F1B0463A
:10335000B6463F0FD6F80864DFF808810AFA07FC82
:10336000404526EA0C0603D14FF0000C41E06CE02A
:10337000DFF8F4C0604502D14FF0010C39E0DFF80E
:10338000ECC0604502D14FF0020C32E0DFF8E0C043
:10339000604502D14FF0030C2BE0DFF8D8C0604548
:1033A00002D14FF0040C24E0DFF8CCC0604502D11C
:1033B0004FF0050C1DE0DFF8C4C0604502D14FF0AE
:1033C000060C16E0DFF8B8C0604502D14FF0070CDC
:1033D0000FE0DFF8B0C0604502D14FF0080C08E004
:1033E000DFF8A4C0604502D14FF0090C01E04FF0B6
:1033F0000A0C0CFA07FC4CEA060CCEF808C44F681D
:10340000DBF80060FF0226EA020600D516435F469D
:10341000CBF80060D1F804C0DBF804605FEA8C2CC4
:1034200026EA020600D516437E606E684F6826EADB
:103430000206BF0300D516436E602E684F6826EA69
:103440000206FF0300D516432E605B1C0A6832FAA1
:1034500003F67FF411AFBDE8F88F0000800000583C
:10346000F4440258000002580004025800080258B0
:10347000000C02580010025800140258001802589C
:10348000001C02580020025800240258006908401D
:1034900000D001207047426921EA02030A4043EA52
:1034A0000241816170470AB1816170470904FBE7FD
:1034B00001480068000C70470010005C01488068FB
:1034C00070470000A401002430B590F84120202A64
:1034D00024D190F84020012A20D0012380F84030E8
:1034E000242280F84120202300240268156825F05A
:1034F000010515600268156825F48055156002689D
:1035000015680D43156001680A6842F001020A60FF
:1035100080F8413080F84040002030BD022030BDAE
:1035200030B590F84120202A22D190F84020012A7D
:103530001ED0012380F84030242280F8412020242E
:1035400000250268136823F0010313600268136802
:1035500023F4706343EA0121116001680A6842F0B4
:1035600001020A6080F8414080F84050002030BDE0
:10357000022030BD70B5040004D094F8410000254D
:1035800010B106E0012070BD204684F8405000F0E4
:10359000F7F8242084F841002068016821F0010137
:1035A0000160D4E9001020F0706008612068816833
:1035B00021F400418160E06821680128A06830D0D2
:1035C00040F404408860E0680228206841682BD0FD
:1035D00021F40061416020682021154A43681343AB
:1035E00043602068C26822F40042C26054F8106B45
:1035F0000DCC104340EA0320F06054F81C3CD4E9A1
:1036000000021043186054F81C0D026842F00102D9
:103610000260656484F84110256384F842500020FC
:1036200070BD40F40040CDE741F40061D2E70000F6
:10363000008000022DE9FF4F81B0044690F8410060
:1036400099469046DDF838B020287BD194F84000A8
:10365000012877D0012084F84000FFF72FFF0122D6
:10366000064619230090D103204603F0DDF9002817
:1036700053D1414921220025C4F82480102084F828
:103680004120FF2784F842006564A4F82A90608DE9
:103690004FF080794FF0007A6563FF2802D94B46DE
:1036A000278505E0608D534620850004000C10D06E
:1036B000226898F800009062606A401C6062608D29
:1036C000401E6085208D401E2085401C0091C2B2A6
:1036D00001E0002200910299204603F08DF913E0E9
:1036E00003F00CFAC8B9606A216800788862606AE1
:1036F000401C6062608D401E6085208D401E80B23F
:103700002085618D01B160B1608D32465946002837
:103710002046E5D103F0C6F9E0B1012005B0BDE8CF
:10372000F08F00225B4680212046009603F07CF952
:103730000028F2D1608DFF2805D927853A464B46EF
:103740000095C8E716E0608D53462085009594F8F3
:103750002820C0E721682020084AC86121684B68FA
:1037600013404B6084F8410084F84250002084F8F4
:103770004050D3E70220D1E70020008000E800FE9F
:103780002DE9F047B6B00546142130A8FDF74BF8F7
:10379000C0216846FDF747F828681226654D0127C5
:1037A00066494FF00409634C0835DFF88CA1884264
:1037B0004FF0000824D10020CDF884800821CDE905
:1037C0000010684600F07AFD08B1FDF7C8FD2068DA
:1037D00040F002002060206830ABC02200F0020000
:1037E00030A9CDE9349083E8C4015046FFF738FD95
:1037F000286840F400102860286800F4001027E0D2
:103800004F49884228D10020CDF884800821CDE995
:103810000010684600F052FD08B1FDF7A0FD2068D9
:1038200040F002002060206830AB4FF4406200F0AE
:10383000020030A9CDE9349083E8C4015046FFF777
:103840000FFD286840F480002860286800F480009C
:10385000359036B0BDE8F0873A4988423DD1002026
:10386000CDF884800821CDE90010684600F026FDDF
:1038700008B1FDF774FD206840F004002060206866
:1038800000F004003590206840F0010020602068BE
:1038900030AABA46CDF8CC8000F0010044464FF47F
:1038A00000714F4682E84204CDE93490264830A9A1
:1038B000FFF7D6FC30A84FF4807180E8420423481B
:1038C00030A9CDE93347FFF7CBFC286840F400006E
:1038D0002860286800F40000BAE71D498842B8D182
:1038E0000020CDF898801021CDE90010684600F046
:1038F000E5FC08B1FDF733FD206840F002002060D0
:103900002068062100F002003590CDE9338130A90E
:103910004FF4407081E8C1005046FFF7A1FC054814
:103920001430016841F080010160006800F08000FF
:103930008EE70000E04402580004025800540040A2
:1039400000580040005C0040000802580000025887
:10395000001C005802488168027811448160704759
:10396000A4010024032010B500F00EF901F01EFBA5
:103970000F4A104914681368C4F3032203F00F03BD
:103980008A5CC95C02F01F0201F01F01D0400A4AA4
:1039900020FA01F11160094908600F2000F010F8C9
:1039A00008B1012010BD00F09FF8002010BD0000FC
:1039B000184402587CCE0008B4010024B001002451
:1039C00010B5102804468AB02CD2002201463720B8
:1039D00000F0BAF8372000F0AAF81748046017483A
:1039E000016841F020010160006809A900F0200091
:1039F0000890684601F066FA0598B0B101F0B2FA95
:103A000040000F4900220F4CB0FBF1F10E4840F28C
:103A1000E7330460C0E90332491EC0E9011201F036
:103A200079FF28B101200AB010BD01F09BFAE8E748
:103A3000054801F0A1FFF6E7A8010024E844025878
:103A400040420F0000140040C80E0024154BF0B592
:103A5000083B427813491A600B680A1F23F00103E0
:103A60000B6043681360057BC67A827A437B2D071F
:103A7000847B45EA0665C77B90F809C0067A90F812
:103A800000E045EAC24040EA834040EA444040EA60
:103A9000074040EA0C2040EA460040EA0E00086079
:103AA000F0BD0000A0ED00E0BFF35F8F04480021EF
:103AB0000368034A23F48033036070321160704757
:103AC00024ED00E0074A40F0010006497032106022
:103AD000086840F480300860BFF34F8FBFF36F8FEA
:103AE0007047000024ED00E0074882B0016841F013
:103AF00002010160006800220F2100F00200009026
:103B0000901E02B000F020B8F444025800280DDBEB
:103B1000410900F01F028900012001F1E0219040DD
:103B2000C1F88001BFF34F8FBFF36F8F704700283C
:103B300009DB410900F01F028900012001F1E021A9
:103B40009040C1F8000170470E4BF0B41B680D4661
:103B5000C3F30223C3F10706042E00D90426191D5E
:103B6000072901D2002300E0DB1E012404FA06F13C
:103B70009C40491E2940641E994014402143F0BCDA
:103B800004F09FBF0CED00E0064900F0070210B5FD
:103B90004FF6FF040868044B204040EA0220184317
:103BA000086010BD0CED00E00000FA05134970B587
:103BB0000A68D243520705D5096801F0070181421E
:103BC00013D118E00A6822F0070202430A60FFF7E7
:103BD00075FC0A4D4FF47A760446083D07E000BFB5
:103BE000FFF76CFC001BB04201D9012070BD2868B2
:103BF000C0438004F4D4002070BD00000C4802587B
:103C000010B501F08DF905490968054AC1F30211A3
:103C1000515C01F01F01C84010BD00002044025853
:103C20007CCE00084A4930B5494C0B1D0A680C345B
:103C300009681D68246802F0030305F00102C1F35E
:103C40000511C4F3CC04002914FB02F200EE102A83
:103C5000F8EE400A76D0414A9FED3E1ADFED3E1A5B
:103C6000B7EE000A23B1012B5AD0022B18D15CE029
:103C7000374C283C23689B0612D5394B246801EE4B
:103C8000901A1168C4F3C104F8EE612AE34001EE12
:103C9000903AC1F30801F8EE611A81EEA22A07E01A
:103CA00002EE101A1168F8EE422A81EEA22A45E0CF
:103CB00001EE901A1168F8EE611A40EE811A71EE69
:103CC000800A62EE200AC1F3462101EE101AB8EE16
:103CD000411A31EE001AC0EE811ABCEEE11A80EDF5
:103CE000001A1168C1F3064101EE101AB8EE411A2C
:103CF00031EE001AC0EE811ABCEEE11A80ED011A15
:103D00001168C1F3066101EE101AB8EE411A31EEE6
:103D1000000A80EE801ABCEEC10A80ED020A30BDB6
:103D200001EE901ADFED0F2A03E001EE901ADFEDAD
:103D30000E2A1168F8EE611A82EEA12AC1F3080179
:103D4000B6E7FFE7002101604160816030BD0000FF
:103D500028440258000000390024744C30440258B2
:103D60000090D0030024744A20BCBE4B494930B5B2
:103D7000484C0B1D0A68143409681D68246802F059
:103D80000303C5F30012C1F30531C4F3CC040029C9
:103D900014FB02F200EE102AF8EE400A75D03F4AFA
:103DA0009FED3D1AB7EE000A6BB1DFED3D1A012B16
:103DB00001D0022B64D002EE101A1168F8EE422AEC
:103DC00081EEA22A21E0334C283C23689B0612D5C1
:103DD000344B246801EE901A1168C4F3C104F8EE64
:103DE000612AE34001EE903AC1F30801F8EE611A4E
:103DF00081EEA22A0BE001EE901ADFED2B2A00BF24
:103E0000F8EE611A116882EEA12AC1F3080101EEF1
:103E1000901A1168F8EE611A40EE811A71EE800A6C
:103E200062EE200AC1F3462101EE101AB8EE411AE3
:103E300031EE001AC0EE811ABCEEE11A80ED001AD4
:103E40001168C1F3064101EE101AB8EE411A31EEC5
:103E5000001AC0EE811ABCEEE11A80ED011A116859
:103E6000C1F3066101EE101AB8EE411A31EE000AF4
:103E700080EE801ABCEEC10A80ED020A30BD04E07B
:103E800001EE901ADFED092ABAE7002101604160D6
:103E90008160F3E728440258000000393844025892
:103EA0000024744A0090D0030024744C20BCBE4B04
:103EB000494930B5484C0B1D0A681C3409681D6817
:103EC000246802F00303C5F30022C1F30551C4F3D3
:103ED000CC04002914FB02F200EE102AF8EE400A8E
:103EE00075D03F4A9FED3D1AB7EE000A6BB1DFED8A
:103EF0003D1A012B01D0022B64D002EE101A11687A
:103F0000F8EE422A81EEA22A21E0334C283C2368B5
:103F10009B0612D5344B246801EE901A1168C4F345
:103F2000C104F8EE612AE34001EE903AC1F30801C2
:103F3000F8EE611A81EEA22A0BE001EE901ADFED95
:103F40002B2A00BFF8EE611A116882EEA12AC1F394
:103F5000080101EE901A1168F8EE611A40EE811A1C
:103F600071EE800A62EE200AC1F3462101EE101ABA
:103F7000B8EE411A31EE001AC0EE811ABCEEE11A19
:103F800080ED001A1168C1F3064101EE101AB8EE77
:103F9000411A31EE001AC0EE811ABCEEE11A80ED32
:103FA000011A1168C1F3066101EE101AB8EE411A48
:103FB00031EE000A80EE801ABCEEC10A80ED020AE2
:103FC00030BD04E001EE901ADFED092ABAE70021C6
:103FD000016041608160F3E7284402580000003925
:103FE000404402580024744A0090D0030024744CCA
:103FF00020BCBE4B2DE9F04FAC4A0546DFF8A8A225
:1040000080F48070DFF8AC9289B01311AA4C084399
:10401000A748AAF104064FF0805C4FF000582CD05E
:1040200085F400770F4357D0DFF87CB285F48067C2
:104030000F430BF1080B61D085F400670F4374D078
:1040400085F480570F436ED085F400570F434FF42B
:1040500080394FF4003E67D085F400270F4371D0BC
:1040600085F480370F436ED085F480460E436BD0C5
:1040700085F400420A4368D02AE0DAF8001001F023
:104080000701052924D2DFE801F075BC7D25B100C8
:1040900006A8FFF7C7FD079809B0BDE8F08F68468E
:1040A000FFF764FE0098F7E703A8FFF701FF039806
:1040B000F2E72068C0F3C10022FA00F0ECE72268C2
:1040C000D20571D561456FD11846E5E74145E3D08A
:1040D0000020E1E74846DFE7DAF8001001F4E0717C
:1040E00080294FD004DC002944D04029F0D188E059
:1040F000C029EFD0B1F5807FEAD177E0DBF800107E
:1041000001F46001B1F5800F3CD004DC91B3B1F54E
:10411000001FDDD175E0B1F5C00FDBD0B1F5000FA8
:10412000D6D163E001E018E030E0DBF8001001F0E8
:10413000E061B1F1007F25D008DCD9B1B1F1807F19
:10414000C6D15EE049E06CE079E09CE0B1F1407FEF
:10415000C0D0B1F1806FBBD148E0DAF8001001F4B3
:10416000E041B1F5005F0DD005DC19B1B1F5805F1C
:10417000AED146E094E0B1F5405FABD0B1F5804FF1
:10418000A6D133E020688000A2D58DE7DAF80010D0
:1041900001F4E021B1F5403F6CD006DC61B1494546
:1041A0007AD0714594D157E037E0B1F5802F65D0D2
:1041B000B1F5A02F8CD10CE000F0D4FE6CE768467E
:1041C000FFF7D4FD019867E703A8FFF771FE049895
:1041D00062E721688903F1D47AE7DBF8001011F473
:1041E00040310ED0494510D07145F5D13168256870
:1041F00001F040516D077FF562AF00297FF45FAF9A
:1042000057E720680001E7D549E720688000E3D53B
:1042100003A8FFF74DFE05983EE722689203DBD521
:1042200054E7306810F480303AD04845D4D1206843
:104230000001D1D56846FFF799FD02982CE7DBF81D
:10424000001001F0E041B1F1405F13D008DC71B122
:10425000614521D04145BFD120688000B4D437E703
:10426000B1F1804F0AD0B1F1A04FB2D030E7FFF7E3
:10427000C7FC11E720684007AED51AE72068C005E3
:10428000AAD521E708E0DAF8001011F04051A0D0DB
:10429000614505D041459FD1206800018FD417E7C3
:1042A0002068800198D5F3E6504402580090D0036E
:1042B00040787D010080BB00004402582DE9FE4F8C
:1042C0000546DFF8E48350F8081B0024F64FC94385
:1042D000019005F12800264608F124080090080105
:1042E0001DD4A86E50B1B0F5801F0CD0B0F5001FE2
:1042F0000ED0B0F5401F1ED001240FE0386840F406
:104300000030386017E00198022103F0DDF903E086
:104310000098022103F068FA04000CD02646288891
:10432000C043C00523D4A86D05281ED2DFE800F0E5
:104330000C11161B1B00AA6ED8F8001021F44011B6
:104340001143C8F80010EAE7386840F400303860DC
:1043500009E00198002103F0B7F903E0009800217B
:1043600003F042FA044674B100E00124264628888E
:10437000C043800528D4E86D80281ED00CDC90B1A5
:1043800040280ED114E0AA6DD8F8001021F00701E2
:104390001143C8F80010EAE7C02813D0B0F5807FB9
:1043A00010D001240FE0386840F40030386009E094
:1043B0000198002103F088F903E00098002103F040
:1043C00013FA04469CB126462888DFF8DC92C043E5
:1043D00009F12C0940052CD4D5F8A800B0F5800FC0
:1043E00020D00DDCA0B1B0F5001F0FD115E0EA6DB3
:1043F000D8F8001021F4E0711143C8F80010E3E789
:10440000B0F5C00F13D0B0F5000F10D001240FE0AD
:10441000386840F40030386009E00198002103F06A
:1044200053F903E00098002103F0DEF904467CB163
:1044300026462888C04300052DD4D5F8AC00B0F13D
:10444000007F21D00EDCA8B1B0F1807F10D116E042
:10445000D5F8A820D9F8001021F460011143C9F85B
:104460000010E6E7B0F1407F13D0B0F1806F10D0BC
:1044700001240FE0386840F40030386009E001980A
:10448000002103F021F903E00098002103F0ACF9CA
:10449000044674B126462868C04380011FD4E86CE6
:1044A000D8B110280FD0202812D0302815D00124E0
:1044B00014E0D5F8AC20D9F8001021F0E0611143E8
:1044C000C9F80010E7E7386840F40030386004E0CD
:1044D0000198022103F0F8F8044674B126462888B2
:1044E000C043C0042BD4286EB0F5005F20D00DDC93
:1044F000A0B1B0F5805F0FD115E06B48EA6C2030B9
:10450000016821F0300111430160E8E7B0F5405F38
:1045100013D0B0F5804F10D001240FE0386840F47C
:104520000030386009E00198002103F0CDF803E085
:104530000098002103F058F904468CB126462888DB
:10454000C043800429D4686EB0F5403F23D010DC0E
:1045500008B3B0F5803F14D0B0F5003F0FD115E09F
:104560002A6ED8F8001021F4E0411143C8F8001079
:10457000E5E7B0F5802F0ED0B0F5A02F0BD00124C9
:104580000AE00198012103F09FF803E0009801215F
:1045900003F02AF9044694B126462888C043400413
:1045A0002AD4D5F8B000B0F1405F23D010DC08B3B6
:1045B000B0F1805F14D0B0F1005F0FD115E06A6EEA
:1045C000D8F8001021F4E0211143C8F80010E4E706
:1045D000B0F1804F0ED0B0F1A04F0BD001240AE013
:1045E0000198012103F070F803E00098012103F025
:1045F000FBF8044674B126462888C04300041FD443
:10460000286FD8B1B0F1805F0ED0B0F1005F10D04C
:10461000012414E0D5F8B020D9F8001021F0E041D1
:104620001143C9F80010E7E7386840F400303860FB
:1046300004E00198012103F047F8044674B12646CE
:104640002868C043C0011ED4A86CD0B101280ED088
:10465000022811D0032814D0012413E02A6FD8F8BF
:10466000001021F040511143C8F80010E8E7386805
:1046700040F40030386004E00198022103F024F88F
:104680000446ACB126462868DFF81CB0C043ABF145
:104690001C0B400252D40548016841F4807101604E
:1046A000FEF70CFF824611E02C44025800480258E5
:1046B000FA48AA6C016821F0030111430160E2E7A6
:1046C000FEF7FCFEA0EB0A00642835D8F448006829
:1046D000C005F5D58CBBDFF8C4A3B5F8B4100AF15A
:1046E000240ADAF8000001F4407100F440708842B6
:1046F00011D0DAF80010DAF8002021F4407142F409
:104700008032CAF80020DAF8002022F48032CAF899
:104710000020CAF80010D5F8B400B0F5807F1AD197
:10472000FEF7CCFE029012E0FEF7C8FE0299411A95
:1047300041F2883081420AD9032426462878DFF8DE
:104740005CA3C0430AF1080AC00721D03CE0DAF8B4
:1047500000008007E8D5D5F8B410C1F30120032884
:1047600058460DD0016821F47C510160B5F8B420A1
:10477000DAF80010C2F30B021143CAF80010DDE7AB
:10478000C84A036802EA111223F47C511143ECE792
:10479000E86F182816D005DCA0B1082808D010282A
:1047A00004D10AE020280DD028280BD001240AE0EB
:1047B0000198012102F088FF03E00098012103F035
:1047C00013F8044664B126462878C04380071ED4F7
:1047D000A86F062819D2DFE800F0160C111616167D
:1047E000EA6FDAF8001021F038011143CAF800101E
:1047F000EAE70198012102F067FF03E00098012138
:1048000002F0F2FF04467CB100E00124264628783D
:10481000C04340071FD4D5F89400062819D2DFE81A
:1048200000F0160C11161616AA6FDAF8001021F017
:1048300007011143CAF80010E9E70198012102F0CD
:1048400043FF03E00098012102F0CEFF0446A4B12B
:1048500000E0012426462878C04380062BD4D5F8F2
:104860009000B0F1405F24D011DC10B3B0F1805F54
:1048700015D0B0F1005F10D116E0D5F89420D9F82A
:10488000001021F007011143C9F80010E3E7B0F16F
:10489000804F0ED0B0F1A04F0BD001240AE0019858
:1048A000002102F011FF03E00098022102F09CFFBA
:1048B000044694B126462878C04340062BD4D5F848
:1048C0009C00B0F5406F24D011DC10B3B0F5806FC0
:1048D00015D0B0F5006F10D116E0D5F89020DAF8B9
:1048E000001021F0E0411143CAF80010E3E7B0F5F1
:1048F000805F0ED0B0F5A05F0BD001240AE00198D4
:10490000002102F0E1FE03E00098022102F06CFFBA
:10491000044694B126462878C04300062BD4D5F827
:10492000A000B0F5C04F24D011DC10B3B0F5005F8B
:1049300015D0B0F5804F10D116E0D5F89C20D9F8ED
:10494000001021F4E0511143C9F80010E3E7B0F57D
:10495000004F0ED0B0F5204F0BD001240AE0019893
:10496000002102F0B1FE03E00098022102F03CFFBA
:10497000044654B126462878C04300071ED4D5F813
:104980008400B0F5805F0AD00FE0D5F8A020D9F8F8
:10499000001021F460411143C9F80010EBE70098C2
:1049A000022102F021FF00B10126D5F88420DAF8B7
:1049B000001021F440511143CAF800102878C04378
:1049C000C00613D4D5F89800B0F5807F05D10098C3
:1049D000022102F009FF00B10126D5F89820D9F88C
:1049E000001021F440711143C9F800102868C04339
:1049F000000316D4D5F8A40038B1B0F5803F09D033
:104A0000B0F5003F0BD001240AE00198002102F02C
:104A10005BFE03E00098022102F0E6FE04468CB142
:104A200026462868C043400322D4D5F88800B0F554
:104A3000801F11D0B0F5001F13D0B0F5401F15D066
:104A4000012414E0D5F8A420D9F8001021F4403155
:104A50001143C9F80010E4E7386840F400303860CA
:104A600004E00098012102F0BFFE04465CB1264636
:104A70002868C043C00323D4286DA8B1B0F5803F97
:104A800017D001241BE0D5F88820DAF8001021F4B3
:104A900040111143CAF80010EAE700004C440258E4
:104AA00000480258CFFFFF00386840F400303860FB
:104AB00004E00198022102F007FE0446E4B1264614
:104AC0002868C043800005D40098022102F08CFEC3
:104AD00000B101262868C04380031BD4D5F88000AC
:104AE000B0B1B0F5807F0FD0B0F5007F10D0B0F539
:104AF000407F0DD001240CE05A482A6D016821F452
:104B0000803111430160DBE7386840F400303860E1
:104B1000ECB326462868C043C00207D46A6FD8F8B1
:104B2000001021F000411143C8F800102868C0436C
:104B3000C00008D4D5F8B820DBF8001021F480417B
:104B40001143CBF800102868C043800207D4EA6EF6
:104B5000D8F8001021F080711143C8F800102868BF
:104B6000C04340000CD4DBF8001021F40041CBF826
:104B70000010DBF80010D5F8BC201143CBF8001072
:104B80002868C04308D437486A6D016800E018E01F
:104B900021F04051114301602868C043000208D44D
:104BA000D5F88C20DAF8001021F440011143CAF83E
:104BB000001028790024C04300F0010020430AD0EF
:104BC0000FE0D5F88020DAF8001021F4407111438D
:104BD000CAF800109EE70198002102F075FD00B1AF
:104BE00006462879C04300F00200204305D1019811
:104BF000012102F069FD00B106462879C04300F0AA
:104C00000400204305D10198022102F05DFD00B1AE
:104C100006462879C04300F00800204305D10098DB
:104C2000002102F0E1FD00B106462879C04300F002
:104C30001000204305D10098012102F0D5FD00B1FC
:104C400006462879C04300F02000044304D10098B0
:104C5000022102F0C9FD00B916B10120BDE8FE8FA6
:104C60000020FBE74C4402582DE9F05F04000F469A
:104C70007ED0DFF83882D8F8000000F00F00B8428C
:104C80000CD2D8F8001021F00F013943C8F80010F9
:104C9000D8F8000000F00F00B84269D12078844DA8
:104CA00040070AD52069296801F07001884204D9BB
:104CB000296821F070010143296020787C4E361D5F
:104CC00000070AD56069316801F07001884204D993
:104CD000316821F07001014331602078C0060AD5A7
:104CE000A069316801F4E061884204D9316821F497
:104CF000E061014331602078DFF8B4B180060BF148
:104D0000080B0CD5E1695846DBF8002002F0700270
:104D1000914204D9026822F070020A4302602078AE
:104D200080070AD5E068296801F00F01884204D99C
:104D3000296821F00F01014329602078C0073ED087
:104D40005B49A2682868183920F470601043286015
:104D50006068022818D0032819D00968012819D0E2
:104D6000490700294ADADFF848A1AAF1080A00E059
:104D700044E0DAF8002022F007020243CAF80020DB
:104D8000FEF79CFB814612E009688903E9E70968A0
:104D90008901E6E7C905E4E7FEF790FBA0EB09010E
:104DA00041F28830814202D90320BDE8F09F61685A
:104DB000DAF8000000F03800B0EBC10FECD1207839
:104DC00080070AD5E068296801F00F01884204D203
:104DD000296821F00F0101432960D8F800104046EE
:104DE00001F00F01B9420BD9016821F00F013943DD
:104DF0000160006800F00F00B84201D00120D4E744
:104E0000207840070AD52069296801F0700188429E
:104E100004D2296821F0700101432960207800073D
:104E20000AD56069316801F07001884204D23168A6
:104E300021F07001014331602078C0060AD5A069D5
:104E4000316801F4E061884204D2316821F4E06104
:104E500001433160207880060CD5E1695846DBF8C3
:104E6000002002F07002914204D2026822F0700227
:104E70000A43026000F09AF80E492A682B68C2F3D0
:104E8000032203F00F038A5CC95C02F01F0201F0E9
:104E90001F01D040084A20FA01F11160074908605B
:104EA00007480068BDE8F05FFEF78ABD00200052A9
:104EB000184402587CCE0008B4010024B00100243C
:104EC000A801002470B5144C3F220260124A2468E5
:104ED0000832131D114D04F00704446016681C1DB0
:104EE00006F470668660166806F00F06C6601268E3
:104EF00002F0700202611A6802F0700242611A68E0
:104F000002F4E0628261226802F07002C2612868E5
:104F100000F00F00086070BD1044025800200052DD
:104F200030B500F043F80B4A0B490C4B1568146878
:104F3000C5F3032204F00F048A5C095D02F01F022E
:104F400001F01F01D040064A20FA01F119601060FB
:104F5000084630BD184402587CCE0008B401002435
:104F6000B001002400B5FFF7DBFF05490968054AD9
:104F7000C1F30211515C01F01F01C84000BD0000E7
:104F80001C4402587CCE000800B5FFF7C9FF054954
:104F90000968054AC1F30221515C01F01F01C840B4
:104FA00000BD00001C4402587CCE0008454970B585
:104FB00045480968434B103B11F0380208D00111F5
:104FC000082A03D0102A0BD0182A0BD0084670BD2F
:104FD00019688906FBD51968C1F3C101C84070BDC5
:104FE0003A4870BD3749374D18310C1D24350A68D1
:104FF000096826682D6802F0030406F00102C1F377
:105000000511C5F3CC0515FB02F200EE102AB8EE2F
:10501000400AE9B32F4ADFED2E0AB7EE001A6CB151
:10502000DFED2D1A012C01D0022C43D002EE101A14
:105030001068F8EE422A81EEA22A1EE01C68A4063F
:1050400011D51B6801EE901A1168C3F3C103F8EE85
:10505000612AD84001EE900AC1F30800F8EE611A07
:1050600081EEA22A0BE001EE901ADFED1C2A00BFB0
:10507000F8EE611A106882EEA12AC0F3080001EE72
:10508000900AF8EE611A40EE201A31EE810A00E033
:1050900015E022EE000A1068C0F34620401C00EE26
:1050A000900AF8EE600A80EE201ABCEEC10A10EEFB
:1050B000100A70BD01EE901ADFED092AD8E7002032
:1050C00070BD0000104402580090D00340787D016C
:1050D00000000039304402580024744A0024744C03
:1050E00020BCBE4B2DE9F05F04007DD0FF4F20783F
:1050F000FE4D1837DFF8F493103DC00748D0D9F8BB
:105100000000396800F03800102815D0182803D1A5
:1051100001F0030002280FD06068B0F5803F12D084
:1051200010B1B0F5A02F18D0286820F48030286086
:10513000286820F4802009E02868800328D560686A
:105140000028D2D024E0286840F4803028606068CD
:1051500088B1FEF7B3F9064609E0286840F48020DC
:105160002860F0E7FEF7AAF9801B64286FD828684A
:105170008003F7D50CE0FEF7A1F9064605E000BF75
:10518000FEF79CF9801B6428F0D828688003F7D4C8
:10519000207841F20308D54E0C3E800769D5D9F836
:1051A0000000396810F038000ED0182801D18807A7
:1051B0000AD0E06890B3296821F019010143296001
:1051C000FEF77CF9824631E02868400702D5E068A6
:1051D00000288AD0E168286820F019000843286078
:1051E000FEF76CF9824607E0DFE000BFFEF766F9E4
:1051F000A0EB0A000228B9D828684007F6D500BFFE
:10520000FEF756F940451BD82069402812D0316876
:1052100021F47C3141EA003030602AE018E000BF20
:10522000FEF74CF9A0EB0A0002289FD82868400737
:10523000F6D5E5E7306820F47C3040F40030EBE749
:10524000207C316821F0FE4141EA0060E4E70DE195
:10525000286820F001002860FEF730F9824605E05A
:10526000FEF72CF9A0EB0A0002288DD82868400729
:10527000F6D42078C0065DD5D9F80000DFF86CB20E
:10528000396800F03800ABF1040B082810D018285A
:1052900003D101F0030001280AD0E0690028286842
:1052A00038D040F080002860FEF708F9824623E0FD
:1052B0002868C00523D5E069802876D11FE0206AE0
:1052C000202821D0316821F0F84141EA8060306027
:1052D00030E000BF94F82010DBF8002022F07C5270
:1052E00042EA0161CBF8001024E000BFFEF7E6F8C7
:1052F000A0EB0A00022898D82868C005F6D5FEF76A
:10530000D7F84045E6D8DAE7306820F0F84040F0BA
:105310008040DCE720F080002860FEF7CFF80646EA
:1053200005E000BFFEF7CAF8801B02289DD8286858
:10533000C005F7D42078000729D56C48616964302E
:1053400000298046016811D041F001010160FEF79B
:10535000B5F8064605E000BFFEF7B0F8801B02284E
:10536000C9D8D8F800008007F6D510E021F0010177
:105370000160FEF7A3F8064605E000BFFEF79EF8C1
:10538000801B022872D8D8F800008007F6D4207855
:10539000800623D5A0690028286810D040F48050EA
:1053A0002860FEF78BF8064605E036E1FEF786F842
:1053B000801B02285AD828688004F7D50EE020F414
:1053C00080502860FEF77AF8064604E0FEF776F88B
:1053D000801B02284AD828688004F7D42078400728
:1053E0004FD5DFF80C81D8F8001041F48071C8F86F
:1053F0000010FEF763F8064605E000BFFEF75EF812
:10540000801B642832D8D8F80000C005F6D5374E86
:10541000A068603601280AD008B1052813D030688A
:1054200020F001003060306820F0040002E03068B5
:1054300040F001003060A06841F2883A90B1FEF778
:105440003DF880460AE0306840F004003060EEE746
:10545000FEF734F8A0EB0801514507D83068800703
:10546000F6D50EE0FEF72AF8804607E084E000BF9C
:10547000FEF724F8A0EB080151457DD8306880077D
:10548000F6D4606AB0B3DFF86480D9F8001008F190
:1054900020084FF6F87B08F10409C1F3C201032983
:1054A000A8F1040A69D00228286820F080702860DA
:1054B00003D0FEF703F8044684E0FDF7FFFF06463D
:1054C00005E000BFFDF7FAFF801B022877D82868A7
:1054D0008001F7D4E26A40F2F331386854F8283F8B
:1054E000884340EA02101843386004E01044025830
:1054F00000480258B5E0217B434622894FF4FE0C58
:10550000208A4FF0FE474902267D521E401EA1F51B
:105510000071C2F308088AB2761E0CEA004042EA23
:1055200008020243504607EA06610A431A60DAF8A5
:10553000002022F00102CAF80020D9F80020266AD3
:1055400022EA0B0242EAC602C9F80020DAF800108B
:10555000A26921F00C011143CAF800100168E26948
:1055600021F0020111430160016841F480310160C2
:10557000016841F4003101E021E027E001600168A9
:1055800041F480210160016841F001010160286857
:1055900040F080702860FDF791FF044605E000BFF1
:1055A000FDF78CFF001B022809D828688001F7D579
:1055B00057E000BFFDF782FF001B022802D903203D
:1055C000BDE8F09F28688001F4D44AE039680128DA
:1055D000D8F8000021D0A26A01F0030393421CD145
:1055E000E26AC1F305118A4217D1216BC0F30802A8
:1055F000491E8A4211D1616BC0F34622491E914275
:105600000BD1A16BC0F30642491E914205D1E16B5B
:10561000C0F30660491E814201D00120D0E7A16C91
:105620004E46D9F80000C0F3CC00814219D0DAF818
:105630000000554620F00100CAF80000FDF73EFFCB
:105640004FEA0007FDF73AFFB842FBD0A26C306882
:1056500020EA0B0040EAC2003060286840F00100F8
:1056600028600020ACE700002DE9F047040029D0B5
:10567000594A4FF000092068584B594D9042C4F8E0
:10568000289006D0984204D0A84202D0E1680F29A1
:1056900018D8E1684FF0010AE76B0831C9080AEB36
:1056A00057167143904205D0984203D0A84201D0CA
:1056B000082907D8904203D0984201D0A84204D1CB
:1056C000102902D90120BDE8F08794F8810020B9A3
:1056D000204684F8809000F085F8022084F881004C
:1056E0002068016821F0010101602068A1698268D9
:1056F000B1F1806F02F4F81110D16268B2F5800F39
:1057000001D01AB10AE0A26B22B107E0A26BB2F19C
:10571000805F03D1026842F48052026060684002F8
:1057200009D5E068072806D32068236D026822F4B3
:1057300080721A4303E02068026822F480720260DB
:10574000A66AE069E26B25683043E3680A431043C8
:105750001843A860D4E90D02D4E90581636A25697C
:105760001843D4F820C00A43266810432843A56D87
:10577000D4E90172D4E9123140EA080040EA0C0091
:1057800038430843104318432843F060606868B901
:105790002068816821F4C05141F400618160206873
:1057A000816821F4C06141F4806181602068016DED
:1057B00021F0010101656068400206D52068626D34
:1057C000C16821F000411143C160C4F8849084F89D
:1057D00081A0002077E70000003001400038004041
:1057E000003C004010B5B6B00446142130A8FBF7C9
:1057F0001AF8C0216846FBF716F818492068884255
:105800002AD14114002019900446CDE900106846C1
:10581000FEF754FD08B1FBF7A2FD1148016841F401
:1058200000510160006800F4005035900C481038B9
:10583000016841F010010160006830AB022100F006
:10584000100035906420052283E81300054830A934
:10585000CDE93342FDF704FD36B010BD0034014000
:10586000F04402580010025870477047704700001B
:10587000F0B590F83C20012A3BD01F4E012480F85F
:105880003C40022280F83D2002681C4D5368B24221
:10589000D2F808C001D0AA4203D14F6823F47003A4
:1058A0003B430F6823F070031F4357600268B24206
:1058B00013D0B2F1804F10D0114B9A420DD0114B42
:1058C0009A420AD0104B9A4207D0AA4205D00F4BF9
:1058D0009A4202D00E4B9A4204D189682CF0800380
:1058E00019439160002180F83D4080F83C10084643
:1058F000F0BD0220F0BD00000000014000040140A6
:105900000004004000080040000C00400018004067
:105910000040014010B5040003D094F83D0010B1E0
:1059200007E0012010BD002084F83C00204600F074
:1059300022F8022084F83D002068211D02F06AFA56
:10594000012084F8480084F83E0084F83F0084F881
:10595000400084F8410084F8420084F8430084F851
:10596000440084F8450084F8460084F8470084F831
:105970003D00002010BD704790F83D10012901D076
:1059800001207047174A022180F83D100168CB685A
:1059900043F00103CB600068904214D0B0F1804F17
:1059A00011D0114988420ED0104988420BD01049BD
:1059B000884208D00F49884205D00F49884202D05A
:1059C0000E49884207D181680D4A1140062906D048
:1059D000B1F5803F03D0016841F001010160002072
:1059E0007047000000000140000400400008004033
:1059F000000C00400004014000180040004001403D
:105A0000070001002DE9F04104000D4603D094F891
:105A10003D0018B108E00120BDE8F081002084F8C5
:105A20003C00204600F04CF8244A022084F83D0057
:105A300020688168114081602068211D02F0EAF928
:105A4000226840F20336AF6940F60C4C2B684FF2E7
:105A5000F00EA86891680B439169B14341EA0721B0
:105A60000843D5E9031720EA0C00D5E9076C20EAC2
:105A70000E00D2F820E03F0140EA062668686D6912
:105A8000314347EA0C37936023680F4301219F613C
:105A90002EF0AA0242EA051322681843106284F825
:105AA000481084F83E1084F83F1084F8441084F8BD
:105AB000451084F83D100020AEE70000F8BFFEFF5F
:105AC000F0B587B0044614216846FAF7ACFE794970
:105AD0000026D4F800C0022477481039754B012500
